:020000040800F2
:10000000000002206D300008E92F0008EB2F0008E7
:10001000ED2F0008EF2F0008F12F0008000000006E
:10002000000000000000000000000000F32F0008A6
:10003000F52F000800000000F72F0008F92F000836
:10004000BD300008BD300008BD300008BD300008DC
:10005000BD300008BD300008BD300008BD300008CC
:10006000BD300008BD300008BD300008BD300008BC
:10007000BD300008BD300008BD300008BD300008AC
:10008000BD30000801300008BD300008BD30000858
:10009000BD300008BD300008BD300008BD3000088C
:1000A000BD300008BD300008BD300008BD3000087C
:1000B000BD300008BD300008BD300008BD3000086C
:1000C000BD300008BD300008BD300008BD3000085C
:1000D000BD300008BD300008BD300008BD3000084C
:1000E000BD300008BD300008BD300008BD3000083C
:1000F000BD300008BD300008BD300008BD3000082C
:10010000BD300008BD300008BD300008BD3000081B
:10011000BD300008BD300008BD300008BD3000080B
:1001200011300008BD300008BD300008BD300008A7
:10013000BD3000080000000000000000BD300008D5
:10014000BD300008BD300008BD300008BD300008DB
:10015000BD300008BD300008BD300008BD300008CB
:10016000BD300008BD300008BD300008BD300008BB
:10017000BD300008BD300008000000000000000095
:08018000BD300008BD3000088D
:1001880010B5054C237833B9044B13B10448AFF3C9
:1001980000800123237010BD0C0000200000000027
:1001A8001831000808B5034B1BB103490348AFF3E6
:1001B800008008BD00000000100000201831000871
:1001C80081F0004102E000BF83F0004330B54FEA00
:1001D80041044FEA430594EA050F08BF90EA020F6D
:1001E8001FBF54EA000C55EA020C7FEA645C7FEA00
:1001F800655C00F0E2804FEA5454D4EB5555B8BF23
:100208006D420CDD2C4480EA020281EA030382EA93
:10021800000083EA010180EA020281EA0303362D25
:1002280088BF30BD11F0004F4FEA01314FF4801CF8
:100238004CEA113102D0404261EB410113F0004F0A
:100248004FEA03334CEA133302D0524263EB4303C1
:1002580094EA050F00F0A780A4F10104D5F1200E5F
:100268000DDB02FA0EFC22FA05F2801841F10001BA
:1002780003FA0EF2801843FA05F359410EE0A5F18E
:1002880020050EF1200E012A03FA0EFC28BF4CF0BF
:10029800020C43FA05F3C01851EBE37101F0004575
:1002A80007D54FF0000EDCF1000C7EEB00006EEB82
:1002B8000101B1F5801F1BD3B1F5001F0CD349080C
:1002C8005FEA30004FEA3C0C04F101044FEA445263
:1002D80012F5800F80F09A80BCF1004F08BF5FEAEA
:1002E800500C50F1000041EB045141EA050130BDCA
:1002F8005FEA4C0C404141EB010111F4801FA4F16D
:100308000104E9D191F0000F04BF01460020B1FAC1
:1003180081F308BF2033A3F10B03B3F120020CDAF9
:100328000C3208DD02F1140CC2F10C0201FA0CF0D7
:1003380021FA02F10CE002F11402D8BFC2F1200C3C
:1003480001FA02F120FA0CFCDCBF41EA0C019040F2
:10035800E41AA2BF01EB0451294330BD6FEA04043B
:100368001F3C1CDA0C340EDC04F11404C4F1200226
:1003780020FA04F001FA02F340EA030021FA04F338
:1003880045EA030130BDC4F10C04C4F1200220FA8F
:1003980002F001FA04F340EA0300294630BD21FACD
:1003A80004F0294630BD94F0000F83F4801306BF93
:1003B80081F480110134013D4EE77FEA645C18BF87
:1003C8007FEA655C29D094EA050F08BF90EA020F1E
:1003D80005D054EA000C04BF1946104630BD91EA16
:1003E800030F1EBF0021002030BD5FEA545C05D119
:1003F8004000494128BF41F0004130BD14F5800458
:100408003CBF01F5801130BD01F0004545F0FE41CB
:1004180041F470014FF0000030BD7FEA645C1ABF00
:10042800194610467FEA655C1CBF0B46024650EA37
:10043800013406BF52EA033591EA030F41F4002163
:1004480030BD00BF90F0000F04BF0021704730B5E9
:100458004FF4806404F132044FF000054FF00001BE
:1004680050E700BF90F0000F04BF0021704730B57F
:100478004FF4806404F1320410F0004548BF404254
:100488004FF000013EE700BF42004FEAE2014FEAA9
:1004980031014FEA02701FBF12F07F4393F07F4F84
:1004A80081F06051704732F07F4208BF704793F087
:1004B8007F4F04BF41F40021704730B54FF460749A
:1004C80001F0004521F000411CE700BF50EA01029D
:1004D80008BF704730B54FF000050AE050EA010246
:1004E80008BF704730B511F0004502D5404261EBB6
:1004F80041014FF4806404F132045FEA915C3FF4F7
:10050800D8AE4FF003025FEADC0C18BF03325FEA93
:10051800DC0C18BF033202EBDC02C2F1200300FA44
:1005280003FC20FA02F001FA03FE40EA0E0021FA69
:1005380002F11444BDE600BF70B54FF0FF0C4CF457
:10054800E06C1CEA11541DBF1CEA135594EA0C0F09
:1005580095EA0C0F00F0DEF82C4481EA030621EA44
:100568004C5123EA4C5350EA013518BF52EA03357F
:1005780041F4801143F4801338D0A0FB02CE4FF031
:100588000005E1FB02E506F00042E0FB03E54FF061
:100598000006E1FB03569CF0000F18BF4EF0010E59
:1005A800A4F1FF04B6F5007F64F5407404D25FEA55
:1005B8004E0E6D4146EB060642EAC62141EA555108
:1005C8004FEAC52040EA5E504FEACE2EB4F1FD0C4A
:1005D80088BFBCF5E06F1ED8BEF1004F08BF5FEAC8
:1005E800500E50F1000041EB045170BD06F000467A
:1005F80046EA010140EA020081EA0301B4EB5C0427
:10060800C2BFD4EB0C0541EA045170BD41F480111E
:100618004FF0000E013C00F3AB8014F1360FDEBF43
:10062800002001F0004170BDC4F10004203C35DA1F
:100638000C341BDC04F11404C4F1200500FA05F3A2
:1006480020FA04F001FA05F240EA020001F0004243
:1006580021F0004110EBD37021FA04F642EB0601B9
:100668005EEA430E08BF20EAD37070BDC4F10C04E3
:10067800C4F1200500FA04F320FA05F001FA04F2A7
:1006880040EA020001F0004110EBD37041F1000193
:100698005EEA430E08BF20EAD37070BDC4F120059E
:1006A80000FA05F24EEA020E20FA04F301FA05F206
:1006B80043EA020321FA04F001F0004121FA04F2AE
:1006C80020EA020000EBD3705EEA430E08BF20EA7E
:1006D800D37070BD94F0000F0FD101F000464000B8
:1006E80041EB010111F4801F08BF013CF7D041EA3A
:1006F800060195F0000F18BF704703F0004652003E
:1007080043EB030313F4801F08BF013DF7D043EA0E
:100718000603704794EA0C0F0CEA135518BF95EAC4
:100728000C0F0CD050EA410618BF52EA4306D1D14B
:1007380081EA030101F000414FF0000070BD50EA6A
:10074800410606BF1046194652EA430619D094EAF4
:100758000C0F02D150EA013613D195EA0C0F05D1DE
:1007680052EA03361CBF104619460AD181EA030132
:1007780001F0004141F0FE4141F470014FF00000EA
:1007880070BD41F0FE4141F4780170BD70B54FF085
:10079800FF0C4CF4E06C1CEA11541DBF1CEA135505
:1007A80094EA0C0F95EA0C0F00F0A7F8A4EB0504E7
:1007B80081EA030E52EA03354FEA013100F08880DE
:1007C8004FEA03334FF0805545EA131343EA1263A7
:1007D8004FEA022245EA111545EA10654FEA00265C
:1007E8000EF000419D4208BF964244F1FD0404F515
:1007F800407402D25B084FEA3202B61A65EB030571
:100808005B084FEA32024FF480104FF4002CB6EB2D
:10081800020E75EB030E22BFB61A754640EA0C00AD
:100828005B084FEA3202B6EB020E75EB030E22BFED
:10083800B61A754640EA5C005B084FEA3202B6EB2E
:10084800020E75EB030E22BFB61A754640EA9C00ED
:100858005B084FEA3202B6EB020E75EB030E22BFBD
:10086800B61A754640EADC0055EA060E18D04FEA7B
:10087800051545EA16754FEA06164FEAC30343EA1B
:1008880052734FEAC2025FEA1C1CC0D111F4801FE8
:100898000BD141EA00014FF000004FF0004CB6E7E1
:1008A80011F4801F04BF01430020B4F1FD0C88BF80
:1008B800BCF5E06F3FF6AFAEB5EB030C04BFB6EB8B
:1008C800020C5FEA500C50F1000041EB045170BD7E
:1008D8000EF0004E4EEA113114EB5C04C2BFD4EBAB
:1008E8000C0541EA045170BD41F480114FF0000E2F
:1008F800013C90E645EA060E8DE60CEA135594EAAB
:100908000C0F08BF95EA0C0F3FF43BAF94EA0C0FAD
:100918000AD150EA01347FF434AF95EA0C0F7FF422
:1009280025AF104619462CE795EA0C0F06D152EA76
:1009380003353FF4FDAE1046194622E750EA41065A
:1009480018BF52EA43067FF4C5AE50EA41047FF46B
:100958000DAF52EA43057FF4EBAE12E74FEA4102CE
:10096800B2F1E04324BFB3F5001CDCF1FE5C0DD905
:1009780001F0004C4FEAC0024CEA5070B2F1004F4F
:1009880040EB830008BF20F00100704711F0804F52
:1009980021D113F13872BCBF01F00040704741F417
:1009A80080114FEA5252C2F11802C2F1200C10FA1B
:1009B8000CF320FA02F018BF40F001004FEAC123FF
:1009C8004FEAD32303FA0CFC40EA0C0023FA02F3A3
:1009D8004FEA4303CCE77FEA625307D150EA013379
:1009E8001EBF4FF0FE4040F44000704701F0004049
:1009F80040F0FE4040F40000704700BF53B94AB9C8
:100A0800002908BF00281CBF4FF0FF314FF0FF300E
:100A180000F072B9ADF1080C6DE904CE00F006F8EB
:100A2800DDF804E0DDE9022304B070472DE9F04762
:100A3800089E04468846002B4BD18A42154667D942
:100A4800B2FA82F24AB1C2F1200701FA02F320FA9F
:100A580007F7954047EA030894404FEA154E230CE0
:100A6800B8FBFEF71FFA85FC0EFB178843EA08431C
:100A780007FB0CF1994209D9EB1807F1FF3080F018
:100A88001B81994240F21881023F2B445B1AA4B2A1
:100A9800B3FBFEF00EFB103344EA034400FB0CFCEE
:100AA800A44509D92C1900F1FF3380F00781A4452A
:100AB80040F2048102382C4440EA0740A4EB0C04BD
:100AC80000271EB1D4400023C6E900433946BDE8DB
:100AD800F0878B4209D9002E00F0EB800027C6E989
:100AE800000138463946BDE8F087B3FA83F7002F8E
:100AF80047D18B4202D3824200F2FA80841A61EB1A
:100B0800030301209846002EE0D0C6E90048DDE73F
:100B180002B9FFDEB2FA82F2002A40F08F80491B48
:100B28004FEA154E1FFA85F80127B1FBFEFC230C8E
:100B38000EFB1C1143EA014308FB0CF1994207D94B
:100B4800EB180CF1FF3002D2994200F2CD808446B6
:100B5800591AA3B2B1FBFEF00EFB101443EA044489
:100B680008FB00F8A04507D92C1900F1FF3302D281
:100B7800A04500F2B6801846A4EB080440EA0C40F1
:100B88009FE7C7F1200CBB4022FA0CFE4EEA030E89
:100B980001FA07F420FA0CF521FA0CF34FEA1E4883
:100BA8002543B3FBF8F92C0C08FB19331FFA8EFA0E
:100BB80044EA034309FB0AF49C4202FA07F200FAEA
:100BC80007F10BD91EEB030309F1FF3080F0878092
:100BD8009C4240F28480A9F1020973441B1BADB208
:100BE800B3FBF8F008FB103345EA034400FB0AFAAC
:100BF800A24508D91EEB040400F1FF336BD2A245CD
:100C080069D90238744440EA0940A0FB0289A4EB80
:100C18000A044C45C2464B4654D351D0002E69D0E5
:100C2800B1EB0A0564EB030404FA0CFCFD40FC403C
:100C38004CEA0505C6E90054002747E7C2F120033E
:100C480020FA03F7954001FA02F021FA03F34FEA7C
:100C5800154E3843010CB3FBFEF71FFA85F80EFB5F
:100C6800173341EA034107FB08F38B4204FA02F405
:100C780007D9691807F1FF3C2FD28B422DD9023FC3
:100C88002944CB1A81B2B3FBFEF00EFB103341EAC4
:100C9800034100FB08F38B4207D9691800F1FF3CB8
:100CA80017D28B4215D902382944C91A40EA074796
:100CB8003BE73746304609E70746E7E61846FBE6CE
:100CC8004145ABD2B8EB020A69EB0E020138134674
:100CD800A4E76046E9E7184695E76746D1E7814605
:100CE8007CE702382C4447E7ACF1020C2B442FE791
:100CF800384608E73746E9E6704700BF10B50446AE
:100D08000E4B18784FF47A73B3FBF0F30C4A106863
:100D1800B0FBF3F000F032FC68B90F2C01D90120C8
:100D28000AE0002221464FF0FF3000F0E7FB034BBA
:100D38005C60002000E0012010BD00BF0000002022
:100D48000800002008B50B4B1A6842F400721A60BC
:100D58001A6842F480621A601A6842F480721A6053
:100D6800032000F0B9FB0020FFF7C8FF02F02AF8C3
:100D7800002008BD003C0240034A1168034B1B7861
:100D88000B441360704700BF2800002000000020BB
:100D9800014B1868704700BF2800002038B504468A
:100DA800FFF7F6FF0546B4F1FF3F02D0044B1B786E
:100DB8001C44FFF7EDFF401BA042FAD338BD00BF2B
:100DC80000000020494B5A6822F440325A605A68A1
:100DD80041680A435A600268536823F48073536079
:100DE80002685368016943EA012353600268536843
:100DF80023F0407353600268536881680B43536063
:100E08000268936823F40063936002689368C1687A
:100E18000B439360826A364B9A4249D002689368C2
:100E280023F07063936002689368816A0B43936050
:100E38000268936823F04053936002689368C16A1C
:100E48000B4393600268936823F00203936002687F
:100E58009368816943EA41039360036A002B32D1A6
:100E68000268536823F4006353600268D36A23F46A
:100E78007003D3620168CB6AC269013A43EA02533C
:100E8800CB620268936823F40073936002689368E6
:100E9800016B43EA412393600268936823F48063FB
:100EA800936002689368416943EA812393607047BD
:100EB8000268936823F0706393600268936823F074
:100EC80040539360BEE70268536843F4006353607D
:100ED8000268536823F46043536001684B68426AB0
:100EE800013A43EA42334B60BFE700BF00230140A9
:100EF8000100000F30B310B50446036C43B1236CF6
:100F080013F0100F0AD00120002384F83C3010BDE4
:100F1800436480F83C3001F071FFF0E7236C23F460
:100F2800885323F0020343F0020323642046FFF7AB
:100F380049FF00206064236C23F0030343F001039E
:100F48002364E1E70120704782B00023019390F801
:100F58003C30012B63D0012380F83C3003689A6849
:100F680012F0010F13D19A6842F001029A60304BD7
:100F78001B68304AA2FB03239B0C03EB430301933A
:100F880002E0019B013B0193019B002BF9D1026810
:100F9800936813F0010F44D0036C23F4E06323F04B
:100FA800010343F480730364536813F4806F05D01E
:100FB800036C23F4405343F480530364036C13F429
:100FC800805F19D0436C23F006034364002380F844
:100FD8003C306FF022031360174B5B6813F01F0F50
:100FE8000DD103689A6812F0405F1DD19A6842F0EB
:100FF80080429A60002015E000234364E6E7036816
:101008000E4A934201D000200CE09A6812F0405F2B
:101018000CD19A6842F080429A60002002E00220D7
:1010280000E0002002B070470020FBE70020F9E74D
:101038000800002083DE1B430023014000200140FC
:1010480090F83C30012B19D0012380F83C3002681D
:10105800936823F00103936003689B6813F0010F02
:1010680007D1036C23F4885323F0010343F00103F1
:101078000364002380F83C3018467047022070470C
:1010880003689A6812F4806F03D09B6813F4807F1A
:101098001CD170B50D460446FFF77AFE0646236854
:1010A8001A6812F0020F1AD1B5F1FF3FF7D025B137
:1010B800FFF76EFE801BA842F1D9236C43F00403AE
:1010C8002364002384F83C3003202DE0036C43F0B4
:1010D80020030364002380F83C30012070476FF040
:1010E80012021A60236C43F40073236423689A681D
:1010F80012F0405F17D1A269BAB9DA6A12F4700F18
:1011080003D09B6813F4806F11D1236C23F4807390
:101118002364236C13F4805F0BD1236C43F0010329
:101128002364002000E0002070BD0020FCE70020C0
:10113800FAE70020F8E70368D86C704730B482B04B
:101148000023019390F83C30012B00F0B780012375
:1011580080F83C300B68092B3ED90568EA689BB2D9
:1011680003EB43031E3B072404FA03F322EA0303B9
:10117800EB600568EA688C680B8803EB43031E3B49
:1011880004FA03F31343EB604B68062B3AD805685F
:101198006A6B03EB8303053B1F2404FA03F322EA7B
:1011A80003036B6305686A6B4B6803EB8303053BBA
:1011B8000C8804FA03F313436B630268404B9A42AA
:1011C80050D002683E4B9A4255D0002380F83C30FC
:1011D800184602B030BC704705682A699BB203EB19
:1011E8004303072404FA03F322EA03032B61056887
:1011F8002A698C680B8803EB430304FA03F313434F
:101208002B61C1E70C2B16D805682A6B03EB830307
:10121800233B1F2404FA03F322EA03032B63056824
:101228002A6B4B6803EB8303233B0C8804FA03F314
:1012380013432B63C1E70568EA6A03EB8303413B69
:101248001F2404FA03F322EA0303EB620568EA6A3F
:101258004B6803EB8303413B0C8804FA03F3134305
:10126800EB62AAE70B68122BABD1164A536843F41A
:1012780080035360A5E70B68103B012BA5D8114AE2
:10128800536843F4000353600B68102B9DD10E4B39
:101298001B6802F1467202F52E3202F28332A2FB7B
:1012A80003239B0C03EB83035A00019202E0019B8A
:1012B800013B0193019B002BF9D186E7022088E7C7
:1012C80000200140002301400800002090F83C3035
:1012D800012B00F0F98030B4012380F83C300B6812
:1012E800092B7DD90568EA689BB203EB43031E3BD3
:1012F800072404FA03F322EA0303EB600568EA68AB
:101308008C680B8803EB43031E3B04FA03F3134377
:10131800EB600268936B23F4401393630468A36B38
:101328000A69013A43EA0253A3630568AA6B4B684A
:101338000C691B1BDBB20333DBB203EB83031F24F3
:1013480004FA03F322EA0303AB630568AA6B4B684C
:101358000C691B1BDBB20333DBB203EB83030C8882
:1013680004FA03F31343AB63CA69584B9A424DD04E
:101378000268936823F47023936002689368CC69C9
:10138800234393600268936823F4401393600268D0
:1013980093680C6A234393608B69002B41D00268E1
:1013A800536843F4806353604B69002B3FD0026855
:1013B800536843F4805353604B68022B57D0032B78
:1013C80062D0012B39D00268136A23F47F6323F0BB
:1013D8000F0313620268136ACC682343136238E070
:1013E80005682A699BB203EB4303072404FA03F355
:1013F80022EA03032B6105682A698C680B8803EBD2
:10140800430304FA03F313432B6182E702689368EA
:1014180023F4702393600268936823F44013936065
:10142800BAE70268536823F480635360BCE7026834
:10143800536823F480535360BEE70268536923F46A
:101448007F6323F00F03536102685369CC68234319
:10145800536102681E4B9A4223D002681C4B9A4281
:1014680028D0002380F83C30184630BC704702680A
:10147800936923F47F6323F00F03936102689369F0
:10148800CC6823439361E4E70268D36923F47F635C
:1014980023F00F03D3610268D369CC682343D36177
:1014A800D7E70B68122BD8D10A4A536843F4800354
:1014B8005360D2E70B68103B012BD2D8054A53681A
:1014C80043F400035360CCE70220704701000F008B
:1014D8000020014000230140074AD36823F4E06359
:1014E8001B041B0C000200F4E060184340F0BF60CE
:1014F80040F40030D060704700ED00E030B4174B86
:10150800DB68C3F30223C3F10704042C28BF0424B7
:101518001D1D062D18D9033B4FF0FF3505FA04F4BD
:1015280021EA0401994005FA03F322EA0303194367
:1015380000280BDB0901C9B200F1604000F56140E9
:1015480080F8001330BC70470023E5E700F00F0077
:101558000901C9B2024B1954F4E700BF00ED00E0DD
:1015680014ED00E000F01F02400901239340024AF5
:1015780042F82030704700BF00E100E00138B0F1C8
:10158800807F0AD2064B5860064AF02182F8231061
:101598000020986007221A6070470120704700BF3A
:1015A80010E000E000ED00E00268D3B2103B0B4908
:1015B800A1FB03131B090A49C95CC165032B06D8A3
:1015C80022F47F7222F003028265806D704722F454
:1015D8007F7222F0030204328265F6E7ABAAAAAA58
:1015E80030310008836A826992B9012B0AD01BB195
:1015F800022B01D000207047C36A13F0807F2CD1E2
:1016080000207047C36AB3F1C07F28D0002070471C
:10161800B2F5005F05D0022B29D9032B15D0002085
:101628007047032B03D8DFE803F01C041C0A0020D2
:101638007047C36A13F0807F15D100207047C36AD2
:10164800B3F1C07F11D000207047C36A13F0807FC8
:1016580001D0012070470020704701207047012009
:101668007047012070470120704701207047012012
:101678007047000070B50446FFF78AFB002C5BD06A
:101688000546002384F83430022384F83530226874
:10169800136823F00103136023681A6812F0010F1E
:1016A8000AD0FFF775FB401B0528F5D92023636591
:1016B800032084F8350070BD1A682048104061681E
:1016C800A2680A43E1680A4321690A4361690A4337
:1016D800A1690A43E1690A43216A0A430243616A2C
:1016E80004291ED01A602668756925F00705636A03
:1016F8001D43042B07D1A36A1D43E36A1BB120468F
:10170800FFF770FF90B975612046FFF74DFFE26D56
:101718003F239340836000206065012384F83530BF
:10172800C9E7E16A206B01430A43DBE740236365AD
:10173800012084F83500BEE70120BCE73F8010F0A7
:10174800F0B583B0044600230193724B1D68724BB9
:10175800A3FB0535AD0A876D3E68C26D082393402B
:10176800334210D003681A6812F0040F0BD01A68BD
:1017780022F004021A60C26D08239340BB60436DD7
:1017880043F001034365E26D01239340334209D0DE
:101798002268526912F0800F04D0BB60636D43F079
:1017A80002036365E26D04239340334209D0226843
:1017B800126812F0020F04D0BB60636D43F004039B
:1017C8006365E26D10239340334224D02268126887
:1017D80012F0080F1FD0BB6023681A6812F4802F1C
:1017E8000DD01B6813F4002F04D1236C9BB1204645
:1017F800984710E0A36C73B1204698470BE01A682D
:1018080012F4807F03D11A6822F008021A60236C50
:101818000BB120469847E26D20239340334255D0C0
:101828002268126812F0100F50D0BB6094F835305F
:10183800DBB2052B0ED023681A6812F4802F33D040
:101848001B6813F4002F2AD1636C002B3ED020466E
:1018580098473BE02268136823F016031360226858
:10186800536923F080035361236CA3B12268136882
:1018780023F008031360E26D3F239340BB6000230D
:1018880084F83430012384F83530236D002B3FD0A1
:10189800204698473CE0A36C002BE7D1EBE7E36BCD
:1018A800A3B12046984711E01A6812F4807F09D145
:1018B8001A6822F010021A60002384F834300123D9
:1018C80084F83530E36B0BB120469847636DFBB164
:1018D800636D13F0010F17D0052384F835302268A3
:1018E800136823F001031360019B01330193AB429A
:1018F80004D823681B6813F0010FF5D1002384F87E
:101908003430012384F83530E36C0BB12046984716
:1019180003B0F0BD08000020B5814E1B00230F2B3B
:1019280000F2D780F0B482B039E0072200E000224C
:10193800B2403A430234674E46F82420664A146897
:10194800EA4302EA04064F6817F4803F01D045EAEB
:101958000406614C2660646802EA04064F6817F4BE
:10196800003F01D045EA04065B4C6660A46802EAC1
:1019780004064F6817F4801F01D045EA0406564C48
:10198800A660E46822404E6816F4001F01D045EABC
:101998000402514CE26001330F2B00F297800122C0
:1019A8009A400C6804EA0205AA42F4D14C68022C59
:1019B80001D0122C10D1DE08083650F826C003F0EA
:1019C8000704A7000F24BC402CEA040C0C69BC4097
:1019D80044EA0C0440F8264004685F000326BE4031
:1019E800F64306EA040C4C6804F00304BC4044EADD
:1019F8000C0404604C6804F1FF3CBCF1010F03D9EE
:101A0800112C01D0122C10D1846806EA040CCC6881
:101A1800BC4044EA0C048460446824EA02024C682E
:101A2800C4F300149C4014434460C26816408A689A
:101A3800BA403243C2604A6812F0805FABD00022DD
:101A48000192264A546C44F480445464526C02F463
:101A580080420192019A9C08A61C1E4A52F82670E0
:101A680003F0030296000F22B24027EA02071C4A3D
:101A780090423FF45CAF02F5806290421AD002F5C2
:101A88008062904218D002F58062904216D002F52A
:101A98008062904214D002F58062904212D002F522
:101AA8008062904210D002F5806290423FF43DAFD0
:101AB80008223DE701223BE7022239E7032237E704
:101AC800042235E7052233E7062231E702B0F0BCED
:101AD8007047704700380140003C01400038024020
:101AE80000000240002800F0BB8170B582B00446B7
:101AF800036813F0010F3BD0A74B9B6803F00C035E
:101B0800042B2CD0A44B9B6803F00C03082B21D08A
:101B18006368B3F5803F4FD0B3F5A02F52D09E4BEA
:101B28001A6822F480321A601A6822F480221A6035
:101B38006368002B50D0FFF72BF90546964B1B68BE
:101B480013F4003F14D1FFF723F9401B6428F5D99B
:101B580003208AE1904B5B6813F4800FD8D08E4B3A
:101B68001B6813F4003F03D06368002B00F07A81F0
:101B7800236813F0020F55D0874B9B6813F00C0FA6
:101B88003ED0854B9B6803F00C03082B33D0E368E9
:101B9800002B68D0814B01221A60FFF7F9F805463F
:101BA8007D4B1B6813F0020F54D1FFF7F1F8401B6F
:101BB8000228F5D9032058E1774A136843F48033A3
:101BC8001360B5E7744B1A6842F480221A601A68E9
:101BD80042F480321A60ABE7FFF7DAF805466E4B3D
:101BE8001B6813F4003FC3D0FFF7D2F8401B6428EA
:101BF800F5D9032039E1684B5B6813F4800FC6D12F
:101C0800654B1B6813F0020F04D0E368012B01D069
:101C180001202AE1604A136823F0F803216943EAA6
:101C2800C1031360236813F0080F40D0636963B3DE
:101C38005B4B01221A60FFF7ABF80546564B5B6F0A
:101C480013F0020F33D1FFF7A3F8401B0228F5D990
:101C580003200AE1504A136823F0F803216943EA94
:101C6800C1031360DEE74D4B00221A60FFF790F8BE
:101C78000546494B1B6813F0020FD3D0FFF788F8CD
:101C8800401B0228F5D90320EFE0454B00221A60DB
:101C9800FFF77EF80546404B5B6F13F0020F06D046
:101CA800FFF776F8401B0228F5D90320DDE023680A
:101CB80013F0040F79D0384B1B6C13F0805F33D1CD
:101CC80000230193344B1A6C42F080521A641B6C47
:101CD80003F080530193019B0125324B1B6813F4D9
:101CE800807F23D0A368012B34D0052B38D02A4B12
:101CF8001A6F22F001021A671A6F22F004021A679B
:101D0800A368002B36D0FFF743F80646224B1B6F1B
:101D180013F0020F48D1FFF73BF8801B41F28833DC
:101D28009842F3D90320A0E00025D6E71D4A13689E
:101D380043F480731360FFF72BF80646194B1B68B2
:101D480013F4807FCED1FFF723F8801B0228F5D942
:101D580003208AE0104A136F43F001031367CFE7AB
:101D68000D4B1A6F42F004021A671A6F42F0010213
:101D78001A67C5E7FFF70CF80646074B1B6F13F009
:101D8800020F11D0FFF704F8801B41F28833984204
:101D9800F3D9032069E000BF003802400000474241
:101DA800800E474200700040E5B9A369002B5BD064
:101DB800304A926802F00C02082A58D0022B17D039
:101DC8002D4B00221A60FEF7E3FF0446294B1B68DF
:101DD80013F0007F42D0FEF7DBFF001B0228F5D985
:101DE800032042E0234A136C23F080531364DCE79A
:101DF800214B00221A60FEF7CBFF05461D4B1B68DE
:101E080013F0007F06D0FEF7C3FF401B0228F5D968
:101E180003202AE0E369226A1343626A43EA8213D1
:101E2800A26A5208013A43EA0243E26A43EA0263B9
:101E3800104A5360104B01221A60FEF7A9FF0446AE
:101E48000C4B1B6813F0007F06D1FEF7A1FF001BA7
:101E58000228F5D9032008E0002006E0002004E06D
:101E680001207047012000E0002002B070BD012071
:101E7800FBE700BF0038024060004742264B9B68E2
:101E880003F00C03042B44D0082B01D023487047DF
:101E98002DE9F04B204B5A6802F03F025B6813F4BF
:101EA800800F13D01C4B5968C1F3881100231C48BC
:101EB800A1FB0001FEF7A2FD174B5B68C3F30143CA
:101EC80001335B00B0FBF3F0BDE8F08B124B5B68AD
:101ED800C3F388131E4600275C010025E41A65EB4E
:101EE8000705A90141EA9461A001001B61EB050106
:101EF800CB0043EA5073C400A01943EB07018B02DF
:101F080043EA90538402204619460023FEF776FDE3
:101F1800D2E70348704700BF003802400024F400AD
:101F280040787D01002800F09D8070B504464F4B35
:101F38001B6803F00F038B4209D2CBB24B4A1370D4
:101F4800136803F00F038B4201D0012070BD236892
:101F580013F0020F17D013F0040F04D0444A93680B
:101F680043F4E0539360236813F0080F04D0404A09
:101F7800936843F4604393603D4A936823F0F00309
:101F8800A068034393600D46236813F0010F32D015
:101F98006368012B21D09A1E012A25D9344A126878
:101FA80012F0020F60D032498A6822F0030213430C
:101FB8008B60FEF7EDFE06462D4B9B6803F00C0385
:101FC8006268B3EB820F16D0FEF7E2FE801B41F287
:101FD80088339842F0D90320B8E7254A126812F4EA
:101FE800003FE0D10120B1E7214A126812F0007FDA
:101FF800D9D10120AAE71D4B1B6803F00F03AB42A0
:1020080009D9EAB2194B1A701B6803F00F03AB42E7
:1020180001D001209AE7236813F0040F06D0144A70
:10202800936823F4E053E1680B439360236813F04B
:10203800080F07D00E4A936823F46043216943EAE6
:10204800C1039360FFF71AFF094B9B68C3F303139F
:10205800084AD35CD840084B18600020FEF74EFEB3
:10206800002073E70120704701206FE7003C024021
:10207800003802403831000808000020014B186879
:10208800704700BF0800002008B5FFF7F7FF044BB2
:102098009B68C3F38223034AD35CD84008BD00BFC2
:1020A800003802404831000808B5FFF7E7FF044B45
:1020B8009B68C3F34233034AD35CD84008BD00BFD2
:1020C800003802404831000870B4036A23F0010365
:1020D8000362036A4268846924F073040D6845EA60
:1020E800040623F002048B6823430C4DA84202D057
:1020F8000B4CA0420BD123F00803CD682B4323F0EF
:10210800040322F440724D6915438A692A434260E8
:1021180086614A684263036270BC704700000140F0
:102128000004014030B4036A23F480730362036A35
:102138004268C46924F073040D682C4323F40073C7
:102148008D6843EA05230E4DA84203D005F5806546
:10215800A8420ED123F40063CD6843EA052323F493
:10216800806322F440524D6942EA05128D6942EAC1
:1021780005124260C4614A68C263036230BC70479A
:102188000000014030B4036A23F480530362036AF9
:102198004468C26922F4E6420D6842EA052223F443
:1021A80000538D6843EA0533094DA84203D005F56D
:1021B8008065A84204D124F480444D6944EA85141A
:1021C8004460C2614A680264036230BC704700BF61
:1021D8000000014010B4036A046A24F00104046298
:1021E800846924F0F00444EA021223F00A030B4342
:1021F800826103625DF8044B704710B4036A23F0F0
:10220800100303628469036A24F4704444EA0232C6
:1022180023F0A00343EA0113826103625DF8044BD3
:10222800704710B4846824F47F4442EA03230B43C4
:10223800234383605DF8044B704710B50468A268B7
:1022480022F070024B68134323F007030A68134314
:10225800A3604B68502B1ED00AD9602B21D0702B5D
:1022680005D10B698A68C9680068FFF7DAFF10BDF5
:10227800402BFCD103681C6A1A6A22F001021A6218
:102288000268936923F0F003096943EA0113936133
:1022980003681C62EBE70A6989680068FFF79AFF20
:1022A800E5E70A6989680068FFF7A7FFDFE70268C2
:1022B800D36843F00103D3600268136843F0010355
:1022C800136000207047704738B590F83830012BFC
:1022D80018D00446012580F83850022380F8393098
:1022E800FFF7ABFF2268D36823F04003D36022686E
:1022F800D36823F48043D36084F83950002084F8ED
:10230800380038BD0220FCE703682E4A904212D0FC
:10231800B0F1804F0FD0A2F57C4290420BD002F56D
:102328008062904207D002F58062904203D002F5A5
:102338007842904203D123F070034A681343214A3C
:1023480090422AD0B0F1804F27D0A2F57C4290422B
:1023580023D002F5806290421FD002F5806290423D
:102368001BD002F57842904217D002F57052904285
:1023780013D002F5806290420FD002F5806290423D
:102388000BD0A2F59832904207D002F580629042B5
:1023980003D002F58062904203D123F44073CA68E7
:1023A800134303608B68C3620B688362054B9842D2
:1023B80003D003F58063984201D10B6903630123BD
:1023C8004361704700000140A8B110B5044690F879
:1023D80039305BB1022384F83930211D2068FFF7BA
:1023E80093FF012384F83930002010BD80F838307D
:1023F80000F058FDEEE701207047A8B110B504467B
:1024080090F839305BB1022384F83930211D2068F7
:10241800FFF77AFF012384F83930002010BD80F8D7
:102428003830FFF750FFEEE70120704730B4036AF9
:1024380023F010030362036A4468826922F4E642C7
:102448000D6842EA052223F020038D6843EA05134C
:102458000E4DA84203D005F58065A8420ED123F0A1
:102468008003CD6843EA051323F0400324F4406455
:102478004D6944EA85048D6944EA850444608261B3
:102488004A688263036230BC704700BF00000140A5
:1024980090F83830012B28D010B50446012380F875
:1024A8003830022380F839300C2A0BD8DFE802F0E4
:1024B800070A0A0A110A0A0A150A0A0A190000680C
:1024C800FFF702FE012384F83930002084F8380031
:1024D80010BD0068FFF7AAFFF4E70068FFF722FEC7
:1024E800F0E70068FFF74EFEECE70220704790F82F
:1024F8003830012B22D030B4012280F83820022352
:1025080080F839300468636823F0700363600468F6
:1025180063680D682B4363600468A36823F0800335
:10252800A3600468A36849680B43A36080F8392056
:10253800002380F83830184630BC704702207047B6
:1025480090F83830012B25D0012380F83830CB683B
:1025580023F440738A68134323F480634A6813435F
:1025680023F400630A68134323F480530A6913436E
:1025780023F400534A69134323F480438A691343BD
:1025880023F40043134302685364002380F838306F
:1025980018467047022070472DE9F8430446016841
:1025A8000A6922F44052C36813430B610168CA6880
:1025B80022F4164222F00C02836800690343606922
:1025C8000343E06903431343CB6021684A6922F45B
:1025D8004072A36913434B61E369B3F5004F60D0C0
:1025E8002368B84A934200F0148102F5806293424E
:1025F80000F00F81FFF748FD00EB800000EB800042
:102608006568AD00B0FBF5F5AF4FA7FB05356D0963
:102618002E01FFF739FD00EB800000EB80006568B4
:10262800AD00B0FBF5F9FFF72FFD00EB800000EBE4
:1026380080006568AD00B0FBF5F5A7FB05356D09B1
:102648004FF0640808FB15952D013235A7FB0535B9
:102658006D0905F0F0053544FFF716FD00EB800025
:1026680000EB80006668B600B0FBF6F6FFF70CFDDD
:1026780000EB800000EB800063689B00B0FBF3F088
:10268800A7FB0030400908FB10684FEA081808F15A
:102698003208A7FB0837C7F3431723682F449F6006
:1026A8000DE12368874A93425BD002F5806293422A
:1026B80057D0FFF7E9FC00EB800000EB800065686D
:1026C8006D00B0FBF5F5804FA7FB05356D092E01B0
:1026D800FFF7DAFC00EB800000EB800065686D0016
:1026E800B0FBF5F9FFF7D0FC00EB800000EB8000B1
:1026F80065686D00B0FBF5F5A7FB05356D094FF072
:10270800640808FB1595ED003235A7FB05356D0902
:102718006D0005F4F8753544FFF7B6FC00EB800052
:1027280000EB800066687600B0FBF6F6FFF7ACFCBD
:1027380000EB800000EB800063685B00B0FBF3F304
:10274800A7FB03235B0908FB13684FEAC80808F1D5
:102758003208A7FB0837C7F3421723682F449F6046
:10276800ADE0FFF7A1FC00EB800000EB800065689E
:102778006D00B0FBF5F5544FA7FB05356D092E012B
:10278800FFF792FC00EB800000EB800065686D00AD
:10279800B0FBF5F9FFF788FC00EB800000EB800048
:1027A80065686D00B0FBF5F5A7FB05356D094FF0C1
:1027B800640808FB1595ED003235A7FB05356D0952
:1027C8006D0005F4F8753544FFF76EFC00EB8000EA
:1027D80000EB800066687600B0FBF6F6FFF764FC55
:1027E80000EB800000EB800063685B00B0FBF3F354
:1027F800A7FB03235B0908FB13684FEAC80808F125
:102808003208A7FB0837C7F3421723682F449F6095
:1028180055E0FFF749FC00EB800000EB800065689D
:10282800AD00B0FBF5F5284FA7FB05356D092E0166
:10283800FFF73AFC00EB800000EB80006568AD0014
:10284800B0FBF5F9FFF730FC00EB800000EB8000EF
:102858006568AD00B0FBF5F5A7FB05356D094FF0D0
:10286800640808FB15952D013235A7FB05356D0960
:1028780005F0F0053544FFF717FC00EB800000EB8E
:1028880080006668B600B0FBF6F6FFF70DFC00EBBB
:10289800800000EB800063689B00B0FBF3F0A7FBAF
:1028A8000030400908FB10684FEA081808F13208A0
:1028B800A7FB0837C7F3431723682F449F60BDE879
:1028C800F88300BF001001401F85EB512DE9F0414E
:1028D80005460F4616469846069C2B681B6837EA3D
:1028E80003030CBF01230023B3421DD1B4F1FF3F02
:1028F800F3D02CB1FEF74CFAA0EB0800A042ECD9BB
:102908002A68D36823F4D073D3602A68536923F004
:1029180001035361202385F8393085F83A300023C4
:1029280085F83830032000E00020BDE8F08158B376
:1029380010B5044690F839300BB3242384F83930A5
:102948002268D36823F40053D3602046FFF724FE9F
:102958002268136923F4904313612268536923F0B2
:102968002A0353612268D36843F40053D3600020DC
:10297800E063202384F8393084F83A3010BD80F8B9
:10298800383000F0D5FAD8E7012070472DE9F0413A
:1029980082B01E4690F83930DBB2202B55D1044660
:1029A8000D469046002955D0002A55D090F8383069
:1029B800012B53D0012380F838300023C36321232F
:1029C80080F83930FEF7E4F90746A4F82480A4F823
:1029D800268010E000963B46002280212046FFF723
:1029E80075FF00283CD12B882268C3F30803536085
:1029F8002369C3B90235E38C9BB2B3B1E38C013BC5
:102A08009BB2E384A368B3F5805FE3D000963B46AE
:102A1800002280212046FFF759FF18BB2A78236837
:102A28005A600135E7E70135E5E700963B460022A5
:102A380040212046FFF74AFF0346A8B9202284F820
:102A48003920002284F8382000E00223184602B01A
:102A5800BDE8F0810123F9E70123F7E70223F5E751
:102A68000323F3E70323F1E70323EFE784B000220E
:102A78000092154B196B41F004011963196B01F0B1
:102A88000401009100990192196B41F080011963CA
:102A9800196B01F08001019101990292196B41F0C3
:102AA80001011963196B01F0010102910299039266
:102AB8001A6B42F010021A631B6B03F010030393A6
:102AC800039B04B0704700BF0038024010B582B0C5
:102AD80000240094124B1A6B42F400121A631A6B0A
:102AE80002F400120092009A01941A6B42F48002D8
:102AF8001A631B6B03F480030193019B2246214652
:102B08001120FEF7FBFC1120FEF72CFD2246214682
:102B18003820FEF7F3FC3820FEF724FD02B010BD84
:102B28000038024070B58EB000240A940B940C94BF
:102B38000D942422214601A800F0E2FA184D194B01
:102B48002B606C604FF00073AB6001262E61AE61A4
:102B58002C62EC62144BAB62EC60EE612E636C612C
:102B68002846FEF7C7F90A940B9607230C930AA97F
:102B78002846FEF7E3FA019402960423059303948A
:102B88004FF4801309934FF4803308930794069405
:102B9800049401A92846FEF799FB0EB070BD00BF4A
:102BA8002C000020002001400100000F08B5084853
:102BB800084B03604FF4E133436000238360C36034
:102BC80003610C2242618361C361FFF7B0FE08BD57
:102BD800780100200044004030B597B000241194DB
:102BE80012941394149415940F94109408940994BF
:102BF8000A940B940C940D940E94019402940394EB
:102C080004940594069407941E4D1F4B2B6041F6BF
:102C18001F436B60AC6040F2E733EB602C616C6182
:102C28002846FFF7D1FB2846FFF7E7FB0723119358
:102C3800129411A92846FFF747FB20230F931094FD
:102C48000FA92846FFF753FC089409940A940B949B
:102C58000C940D940E94224608A92846FFF718FCF8
:102C6800019402940394049405944FF4005306933A
:102C7800079401A92846FFF763FC284600F02AF9C3
:102C880017B030BD380100200000014010B594B0E5
:102C98003022002108A800F033FA00240394049499
:102CA8000594069407940194154B1A6C42F08052CF
:102CB8001A641B6C03F080530193019B0294114B1F
:102CC8001A6842F480421A601B6803F48043029336
:102CD800029B0223089301230B9310230C930E9459
:102CE80008A8FEF7FFFE0F230393049405940694A7
:102CF8000794214603A8FFF715F914B010BD00BFCB
:102D0800003802400070004008B5FEF71BF8FFF7D6
:102D1800BDFFFFF7ABFEFFF7D9FEFFF703FFFFF795
:102D280045FFFFF759FF0A2306221F491F48FFF7EF
:102D38002DFE1F48FFF7BBFA1E4C2046FEF704F98C
:102D48004FF47A712046FEF79BF92046FEF7F3F917
:102D5800C0B2194D2870FDF785FB0FA3D3E90023F6
:102D6800FDF7EAFB0EA3D3E90023FDF70FFDFDF7FE
:102D7800F5FD124908600A2301220C48FFF706FEF8
:102D88002046FEF75DF90A20FEF708F800232B70AD
:102D9800D2E700BFAFF300806666666666660A40E3
:102DA8000000000000E06F4050310008780100206A
:102DB800380100202C00002034010020740100207C
:102DC8007047000082B0002100910B4B5A6C42F40E
:102DD80080425A645A6C02F480420092009A01912F
:102DE8001A6C42F080521A641B6C03F080530193F2
:102DF800019B02B0704700BF0038024030B589B06F
:102E0800002303930493059306930793026803F141
:102E1800804303F590339A4201D009B030BD04468F
:102E28000025019503F58C335A6C42F480725A647C
:102E38005A6C02F480720192019A02951A6B42F060
:102E480001021A631B6B03F001030293029B012327
:102E580003930323049303A90F48FEF75FFD0F486C
:102E68000F4B036045608560C5604FF48063036164
:102E78004FF4006343614FF400538361C5610562F9
:102E88004562FEF7F7FB18B9044BA3639C63C4E7DC
:102E9800FFF796FFF8E700BF00000240D4000020CB
:102EA800106402400268094B9A4200D0704782B011
:102EB80000230193064B5A6C42F001025A645B6C82
:102EC80003F001030193019B02B070470000014029
:102ED8000038024000B587B00023019302930393A2
:102EE8000493059302680F4B9A4202D007B05DF82D
:102EF80004FB002300930C4B1A6B42F010021A6378
:102F08001B6B03F010030093009B4FF400730193B5
:102F1800022302930123059301A90448FEF7FEFC4E
:102F2800E4E700BF00000140003802400010024002
:102F380030B589B000230393049305930693079350
:102F48000268234B9A4201D009B030BD04460025DF
:102F5800019503F5FA331A6C42F400321A641A6CBC
:102F680002F400320192019A02951A6B42F00102B2
:102F78001A631B6B03F001030293029B0C23039358
:102F8800022304930123059303230693072307933E
:102F980003A91048FEF7C2FC0F48104B03604FF01E
:102FA8000063436040238360C5604FF4806303611E
:102FB80045618561C56105624562FEF75BFB18B92D
:102FC800054B23639C63BFE7FFF7FAFEF8E700BFF2
:102FD800004400400000024074000020A06002404D
:102FE8007047FEE7FEE7FEE7FEE770477047704769
:102FF80008B5FDF7C1FE08BD08B50248FEF7A0FBFD
:1030080008BD00BF7400002008B50248FEF798FB11
:1030180008BD00BFD40000200F49D1F8883043F420
:103028007003C1F888300D4B1A6842F001021A602B
:10303800002098601A6822F0847222F480321A60A4
:10304800074A5A601A6822F480221A60D8604FF042
:1030580000638B60704700BF00ED00E0003802405D
:1030680010300024DFF834D0002103E00C4B5B580B
:10307800435004310B480C4B42189A42F6D30B4A82
:1030880002E0002342F8043B094B9A42F9D3FFF7C8
:10309800C3FF00F011F8FFF737FE70470000022069
:1030A80064310008000000200C0000200C00002003
:1030B800B8010020FEE7000070B50D4E0D4CA41BB2
:1030C800A4100025A54209D10B4E0C4C00F020F8A5
:1030D800A41BA4100025A54205D170BD56F82530C3
:1030E80098470135EEE756F8253098470135F2E75D
:1030F8005C3100085C3100085C3100086031000870
:1031080002440346934200D1704703F8011BF9E7D4
:10311800F8B500BFF8BC08BC9E467047F8B500BFBC
:08312800F8BC08BC9E4670478C
:103130000006101600061016000000000000000037
:10314000010203040607080900000000010203044D
:043150001B630000FD
:08315400E0D8FF7F010000003C
:04315C00AD010008B9
:0431600089010008D9
:0C31640001000000100000000024F40036
:040000050800306D52
:00000001FF
